{
  "_format": "hh-sol-artifact-1",
  "contractName": "CrowdFund",
  "sourceName": "contracts/crowdfund.sol",
  "abi": [
    {
      "constant": false,
      "inputs": [
        {
          "name": "_campaignID",
          "type": "uint256"
        }
      ],
      "name": "withdrawFunds",
      "outputs": [],
      "payable": false,
      "stateMutability": "nonpayable",
      "type": "function"
    },
    {
      "constant": false,
      "inputs": [
        {
          "name": "_campaignID",
          "type": "uint256"
        }
      ],
      "name": "claimRefund",
      "outputs": [],
      "payable": false,
      "stateMutability": "nonpayable",
      "type": "function"
    },
    {
      "constant": true,
      "inputs": [],
      "name": "owner",
      "outputs": [
        {
          "name": "",
          "type": "address"
        }
      ],
      "payable": false,
      "stateMutability": "view",
      "type": "function"
    },
    {
      "constant": false,
      "inputs": [
        {
          "name": "_campaignID",
          "type": "uint256"
        }
      ],
      "name": "fundCampaign",
      "outputs": [],
      "payable": true,
      "stateMutability": "payable",
      "type": "function"
    },
    {
      "constant": false,
      "inputs": [
        {
          "name": "_campaignTitle",
          "type": "string"
        },
        {
          "name": "_campaignDescription",
          "type": "string"
        },
        {
          "name": "_goalAmount",
          "type": "uint256"
        },
        {
          "name": "_fundingPeriodInDays",
          "type": "uint256"
        }
      ],
      "name": "createCampaign",
      "outputs": [],
      "payable": false,
      "stateMutability": "nonpayable",
      "type": "function"
    },
    {
      "constant": true,
      "inputs": [
        {
          "name": "_campaignID",
          "type": "uint256"
        }
      ],
      "name": "getDetailCampaign",
      "outputs": [
        {
          "name": "totalAmountFunded",
          "type": "uint256"
        }
      ],
      "payable": false,
      "stateMutability": "view",
      "type": "function"
    },
    {
      "constant": false,
      "inputs": [
        {
          "name": "_campaignID",
          "type": "uint256"
        }
      ],
      "name": "closeCampaign",
      "outputs": [],
      "payable": false,
      "stateMutability": "nonpayable",
      "type": "function"
    },
    {
      "constant": true,
      "inputs": [
        {
          "name": "_campaignID",
          "type": "uint256"
        }
      ],
      "name": "getContributions",
      "outputs": [
        {
          "name": "contribution",
          "type": "uint256"
        }
      ],
      "payable": false,
      "stateMutability": "view",
      "type": "function"
    },
    {
      "inputs": [],
      "payable": false,
      "stateMutability": "nonpayable",
      "type": "constructor"
    }
  ],
  "bytecode": "0x608060405234801561001057600080fd5b50336000806101000a81548173ffffffffffffffffffffffffffffffffffffffff021916908373ffffffffffffffffffffffffffffffffffffffff16021790555061141b806100606000396000f3fe60806040526004361061007b5760003560e01c8063a318f2691161004e578063a318f2691461017b578063afa5a463146102ee578063b0e1c1e11461033d578063d05e3cc5146103785761007b565b8063155dd5ee146100805780635b7baf64146100bb5780638da5cb5b146100f657806392bd38bc1461014d575b600080fd5b34801561008c57600080fd5b506100b9600480360360208110156100a357600080fd5b81019080803590602001909291905050506103c7565b005b3480156100c757600080fd5b506100f4600480360360208110156100de57600080fd5b8101908080359060200190929190505050610621565b005b34801561010257600080fd5b5061010b610943565b604051808273ffffffffffffffffffffffffffffffffffffffff1673ffffffffffffffffffffffffffffffffffffffff16815260200191505060405180910390f35b6101796004803603602081101561016357600080fd5b8101908080359060200190929190505050610968565b005b34801561018757600080fd5b506102ec6004803603608081101561019e57600080fd5b81019080803590602001906401000000008111156101bb57600080fd5b8201836020820111156101cd57600080fd5b803590602001918460018302840111640100000000831117156101ef57600080fd5b91908080601f016020809104026020016040519081016040528093929190818152602001838380828437600081840152601f19601f8201169050808301925050505050505091929192908035906020019064010000000081111561025257600080fd5b82018360208201111561026457600080fd5b8035906020019184600183028401116401000000008311171561028657600080fd5b91908080601f016020809104026020016040519081016040528093929190818152602001838380828437600081840152601f19601f8201169050808301925050505050505091929192908035906020019092919080359060200190929190505050610c59565b005b3480156102fa57600080fd5b506103276004803603602081101561031157600080fd5b8101908080359060200190929190505050610f24565b6040518082815260200191505060405180910390f35b34801561034957600080fd5b506103766004803603602081101561036057600080fd5b8101908080359060200190929190505050610f44565b005b34801561038457600080fd5b506103b16004803603602081101561039b57600080fd5b8101908080359060200190929190505050611032565b6040518082815260200191505060405180910390f35b806002600082815260200190815260200160002060000160009054906101000a900473ffffffffffffffffffffffffffffffffffffffff1673ffffffffffffffffffffffffffffffffffffffff163373ffffffffffffffffffffffffffffffffffffffff1614610482576040517f08c379a000000000000000000000000000000000000000000000000000000000815260040180806020018281038252602b8152602001806113c5602b913960400191505060405180910390fd5b6002600083815260200190815260200160002060060160029054906101000a900460ff16610518576040517f08c379a00000000000000000000000000000000000000000000000000000000081526004018080602001828103825260188152602001807f43616d706169676e20646f6573206e6f7420657869737473000000000000000081525060200191505060405180910390fd5b6002600083815260200190815260200160002060060160009054906101000a900460ff16610591576040517f08c379a000000000000000000000000000000000000000000000000000000000815260040180806020018281038252602681526020018061139f6026913960400191505060405180910390fd5b3373ffffffffffffffffffffffffffffffffffffffff166108fc60026000858152602001908152602001600020600401549081150290604051600060405180830381858888f193505050501580156105ed573d6000803e3d6000fd5b5060006002600084815260200190815260200160002060060160016101000a81548160ff0219169083151502179055505050565b6002600082815260200190815260200160002060060160029054906101000a900460ff166106b7576040517f08c379a00000000000000000000000000000000000000000000000000000000081526004018080602001828103825260188152602001807f43616d706169676e20646f6573206e6f7420657869737473000000000000000081525060200191505060405180910390fd5b60006002600083815260200190815260200160002060070160003373ffffffffffffffffffffffffffffffffffffffff1673ffffffffffffffffffffffffffffffffffffffff1681526020019081526020016000205411610780576040517f08c379a00000000000000000000000000000000000000000000000000000000081526004018080602001828103825260108152602001807f4e6f20636f6e747269627574696f6e730000000000000000000000000000000081525060200191505060405180910390fd5b61078981611125565b6002600082815260200190815260200160002060060160019054906101000a900460ff161580156107db57506002600082815260200190815260200160002060060160009054906101000a900460ff16155b61084d576040517f08c379a000000000000000000000000000000000000000000000000000000000815260040180806020018281038252601a8152602001807f5265636c61696d20636f6e646974696f6e73206e6f74206d657400000000000081525060200191505060405180910390fd5b3373ffffffffffffffffffffffffffffffffffffffff166108fc6002600084815260200190815260200160002060070160003373ffffffffffffffffffffffffffffffffffffffff1673ffffffffffffffffffffffffffffffffffffffff168152602001908152602001600020549081150290604051600060405180830381858888f193505050501580156108e6573d6000803e3d6000fd5b5060006002600083815260200190815260200160002060070160003373ffffffffffffffffffffffffffffffffffffffff1673ffffffffffffffffffffffffffffffffffffffff1681526020019081526020016000208190555050565b6000809054906101000a900473ffffffffffffffffffffffffffffffffffffffff1681565b600034116109de576040517f08c379a000000000000000000000000000000000000000000000000000000000815260040180806020018281038252601d8152602001807f436f6e747269627574696f6e2073686f756c64206265203e302077656900000081525060200191505060405180910390fd5b6002600082815260200190815260200160002060060160029054906101000a900460ff16610a74576040517f08c379a00000000000000000000000000000000000000000000000000000000081526004018080602001828103825260188152602001807f43616d706169676e20646f6573206e6f7420657869737473000000000000000081525060200191505060405180910390fd5b6002600082815260200190815260200160002060060160019054906101000a900460ff16610b0a576040517f08c379a000000000000000000000000000000000000000000000000000000000815260040180806020018281038252600f8152602001807f43616d706169676e20436c6f736564000000000000000000000000000000000081525060200191505060405180910390fd5b610b1381611125565b346002600083815260200190815260200160002060070160003373ffffffffffffffffffffffffffffffffffffffff1673ffffffffffffffffffffffffffffffffffffffff16815260200190815260200160002054016002600083815260200190815260200160002060070160003373ffffffffffffffffffffffffffffffffffffffff1673ffffffffffffffffffffffffffffffffffffffff168152602001908152602001600020819055503460026000838152602001908152602001600020600401540160026000838152602001908152602001600020600401819055506002600082815260200190815260200160002060030154600260008381526020019081526020016000206004015410610c565760016002600083815260200190815260200160002060060160006101000a81548160ff0219169083151502179055505b50565b6000845114158015610c6d57506000835114155b610cc2576040517f08c379a000000000000000000000000000000000000000000000000000000000815260040180806020018281038252602f81526020018061131a602f913960400191505060405180910390fd5b60008211610d1b576040517f08c379a000000000000000000000000000000000000000000000000000000000815260040180806020018281038252602a815260200180611349602a913960400191505060405180910390fd5b60018110158015610d2e575061016d8111155b610d83576040517f08c379a000000000000000000000000000000000000000000000000000000000815260040180806020018281038252602c815260200180611373602c913960400191505060405180910390fd5b60016000815460010191905081905550610d9b61120c565b6040518061012001604052803373ffffffffffffffffffffffffffffffffffffffff16815260200186815260200185815260200184815260200160008152602001620151808402420181526020016000151581526020016001151581526020016001151581525090508060026000600154815260200190815260200160002060008201518160000160006101000a81548173ffffffffffffffffffffffffffffffffffffffff021916908373ffffffffffffffffffffffffffffffffffffffff1602179055506020820151816001019080519060200190610e7d929190611274565b506040820151816002019080519060200190610e9a929190611274565b50606082015181600301556080820151816004015560a0820151816005015560c08201518160060160006101000a81548160ff02191690831515021790555060e08201518160060160016101000a81548160ff0219169083151502179055506101008201518160060160026101000a81548160ff0219169083151502179055509050505050505050565b600060026000838152602001908152602001600020600401549050919050565b806002600082815260200190815260200160002060000160009054906101000a900473ffffffffffffffffffffffffffffffffffffffff1673ffffffffffffffffffffffffffffffffffffffff163373ffffffffffffffffffffffffffffffffffffffff1614610fff576040517f08c379a000000000000000000000000000000000000000000000000000000000815260040180806020018281038252602b8152602001806113c5602b913960400191505060405180910390fd5b60006002600084815260200190815260200160002060060160016101000a81548160ff0219169083151502179055505050565b60006002600083815260200190815260200160002060060160029054906101000a900460ff166110ca576040517f08c379a00000000000000000000000000000000000000000000000000000000081526004018080602001828103825260188152602001807f43616d706169676e20646f6573206e6f7420657869737473000000000000000081525060200191505060405180910390fd5b6002600083815260200190815260200160002060070160003373ffffffffffffffffffffffffffffffffffffffff1673ffffffffffffffffffffffffffffffffffffffff168152602001908152602001600020549050919050565b6002600082815260200190815260200160002060060160029054906101000a900460ff166111bb576040517f08c379a00000000000000000000000000000000000000000000000000000000081526004018080602001828103825260188152602001807f43616d706169676e20646f6573206e6f7420657869737473000000000000000081525060200191505060405180910390fd5b60026000828152602001908152602001600020600501544211156112095760006002600083815260200190815260200160002060060160016101000a81548160ff0219169083151502179055505b50565b604051806101200160405280600073ffffffffffffffffffffffffffffffffffffffff16815260200160608152602001606081526020016000815260200160008152602001600081526020016000151581526020016000151581526020016000151581525090565b828054600181600116156101000203166002900490600052602060002090601f016020900481019282601f106112b557805160ff19168380011785556112e3565b828001600101855582156112e3579182015b828111156112e25782518255916020019190600101906112c7565b5b5090506112f091906112f4565b5090565b61131691905b808211156113125760008160009055506001016112fa565b5090565b9056fe43616d706169676e205469746c6520616e64206465736372697074696f6e2063616e6e6f7420626520656d70747921476f616c20616d6f756e74206d757374206265206d6f7265207468616e207a65726f206574686572732146756e64696e6720506572696f642073686f756c64206265206265747765656e2031202d333635206461797343616e742077697468647261772e20476f616c20616d6f756e74206e6f7420726561636865644f6e6c792043616d706169676e206f776e65722063616e2063616c6c20746869732066756e6374696f6e2ea165627a7a72305820c7ff4011c8cecebcbdf44956a93923a971a3f544ec6cc77e35c2d36ced0ecf0f0029",
  "linkReferences": {},
  "deployedLinkReferences": {}
}